:100000000C9435000C945D000C945D000C945D0024
:100010000C945D000C945D000C945D000C945D00EC
:100020000C945D000C945D000C945D000C945D00DC
:100030000C945D000C945D000C945D000C945D00CC
:100040000C947A000C945D000C944D020C94870281
:100050000C945D000C945D000C945D000C945D00AC
:100060000C945D000C945D004A0311241FBECFEF79
:10007000D8E0DEBFCDBF11E0A0E0B1E0E4E6F7E0FC
:1000800002C005900D92AA31B107D9F721E0AAE18B
:10009000B1E001C01D92AD3CB207E1F710E0C5E34D
:1000A000D0E004C02197FE010E94AA03C433D10707
:1000B000C9F70E9473000C9485030C94000040E083
:1000C00052EC61E070E083E291E00C94C20260E0E7
:1000D00071E083E291E00E94A20168EE73E080E0AB
:1000E00090E00C94E9000E940F010E945F000E94C2
:1000F0006700FDCF1F920F920FB60F9211242F931E
:100100003F938F939F93AF93BF9380911B019091E7
:100110001C01A0911D01B0911E0130911A0123E034
:10012000230F2D3720F40196A11DB11D05C026E82F
:10013000230F0296A11DB11D20931A0180931B016C
:1001400090931C01A0931D01B0931E0180911F018B
:1001500090912001A0912101B09122010196A11D51
:10016000B11D80931F0190932001A0932101B093B2
:100170002201BF91AF919F918F913F912F910F904D
:100180000FBE0F901F9018953FB7F89480911F01F4
:1001900090912001A0912101B091220126B5A89B48
:1001A00005C02F3F19F00196A11DB11D3FBFBA2F09
:1001B000A92F982F8827820F911DA11DB11DBC0169
:1001C000CD0142E0660F771F881F991F4A95D1F72E
:1001D0000895CF92DF92EF92FF92CF93DF936B015E
:1001E0007C010E94C400EB01C114D104E104F104BC
:1001F00079F00E94C4006C1B7D0B683E7340A0F335
:1002000081E0C81AD108E108F108C851DC4FECCFF1
:10021000DF91CF91FF90EF90DF90CF900895789489
:1002200084B5826084BD84B5816084BD85B58260FB
:1002300085BD85B5816085BDEEE6F0E08081816099
:100240008083E1E8F0E01082808182608083808199
:1002500081608083E0E8F0E0808181608083E1EB71
:10026000F0E0808184608083E0EBF0E08081816059
:100270008083EAE7F0E0808184608083808182600F
:1002800080838081816080838081806880831092F8
:10029000C1000895CF92DF92EF92FF920F931F93C8
:1002A000CF93DF936C01EB017B01E40EF51E00E0C0
:1002B00010E0CE15DF0561F06991D601ED91FC915A
:1002C0000190F081E02DC6010995080F191FF1CFAB
:1002D000C801DF91CF911F910F91FF90EF90DF90B8
:1002E000CF9008956115710579F0FB010190002010
:1002F000E9F73197AF01461B570BDC01ED91FC91FB
:100300000280F381E02D099480E090E00895DC0103
:10031000ED91FC910190F081E02D09940F931F93D2
:10032000CF93DF93EC016DE00E9487018C016AE0BE
:10033000CE010E948701800F911FDF91CF911F9105
:100340000F9108950F931F93CF93DF93EC010E94B9
:1003500072018C01CE010E948E01800F911FDF91EE
:10036000CF911F910F910895FC0124853585F901E6
:10037000E05CFF4F80819181329620813181821B28
:10038000930B8F7399270895DC011C96ED91FC91D6
:100390001D97DF01A05CBF4F2D913C9111971296E4
:1003A0008D919C9111972817390739F08D919C9167
:1003B000E80FF91F808190E008958FEF9FEF089577
:1003C000FC01A485B585FD01E05CFF4F20813181F2
:1003D0003296808191812817390779F08081918147
:1003E000A80FB91F8C91208131812F5F3F4F2F7350
:1003F00033273183208390E008958FEF9FEF089596
:10040000FC0181A1882329F0A489B5898C9186FFFC
:10041000FBCF11A208950F931F93CF93DF93FC019D
:10042000A685B7858D01005C1F4FE8018881998101
:1004300001968F739927AD014E5B5F4FEA012881CA
:10044000398182179307D1F3E80128813981A20FFE
:10045000B31F6C93A685B785A05CBF4F11969C9384
:100460008E93A689B7892C9181E090E0078C02C019
:10047000880F991F0A94E2F7822B8C9381E081A365
:100480000488F589E02D80818064808381E090E09C
:10049000DF91CF911F910F9108951F920F920FB688
:1004A0000F9211242F934F935F938F939F93EF930A
:1004B000FF938091C00082FD1CC02091C6008091F6
:1004C000C9019091CA0101968F7399274091CB0180
:1004D0005091CC018417950771F0E091C901F0911A
:1004E000CA01E757FE4F20839093CA018093C90148
:1004F00002C08091C600FF91EF919F918F915F9113
:100500004F912F910F900FBE0F901F9018951F9233
:100510000F920FB60F9211242F933F938F939F93B7
:10052000EF93FF932091850130918601809187019F
:10053000909188012817390731F48091C1008F7D8F
:100540008093C10014C0E0918701F0918801EB5BBA
:10055000FE4F2081809187019091880101968F73D1
:10056000992790938801809387012093C600FF917B
:10057000EF919F918F913F912F910F900FBE0F9010
:100580001F901895CF92DF92EF92FF920F931F93D7
:10059000CF93DF93EC016A017B014115514E610558
:1005A000710509F1EC89FD8981E090E008A002C0A5
:1005B000880F991F0A94E2F7808360E079E08DE369
:1005C00090E0A70196010E94880389019A010150D9
:1005D0001109210931093695279517950795980135
:1005E00001151041A8F0EC89FD89108260E874E8DB
:1005F0008EE190E0A70196010E948803DA01C9010B
:100600000197A109B109B695A795979587959C0182
:10061000E889F9893083EA89FB89208319A2EE8968
:10062000FF89408181E090E09C010C8C02C0220F88
:10063000331F0A94E2F7242B2083EE89FF8940813F
:100640009C010D8C02C0220F331F0A94E2F7242B69
:100650002083EE89FF8940819C010E8C02C0220F0D
:10066000331F0A94E2F7242B2083EE89FF8920812F
:100670000F8C02C0880F991F0A94E2F7809582239D
:100680008083DF91CF911F910F91FF90EF90DF90CA
:10069000CF900895E3E2F1E01382128288EE93E0B6
:1006A000A0E0B0E084839583A683B7838EE091E0D9
:1006B0009183808389E891E09587848785E491E040
:1006C0009787868785EC90E0918B808B84EC90E017
:1006D000938B828B80EC90E0958B848B81EC90E007
:1006E000978B868B82EC90E0918F808F86EC90E0E8
:1006F000938F828F84E0848F83E0858F87E0868F5D
:1007000085E0878F81E080A30895F8940C94B0036E
:10071000A1E21A2EAA1BBB1BFD010DC0AA1FBB1F05
:10072000EE1FFF1FA217B307E407F50720F0A21B77
:10073000B30BE40BF50B661F771F881F991F1A94E4
:1007400069F760957095809590959B01AC01BD010E
:10075000CF010895EE0FFF1F0590F491E02D09944D
:04076000F894FFCF3B
:10076400486920576F726C642100000000000B027E
:0A0774004A01B401E001C4010002D3
:00000001FF
